{
    "_format": "hh-sol-artifact-1",
    "contractName": "LayeralizeFactoryContract",
    "sourceName": "contracts/LayeralizeFactoryContract.sol",
    "abi": [
        {
            "inputs": [
                {
                    "internalType": "uint256",
                    "name": "",
                    "type": "uint256"
                }
            ],
            "name": "collections",
            "outputs": [
                {
                    "internalType": "contract LayeralizeNFTContract",
                    "name": "",
                    "type": "address"
                }
            ],
            "stateMutability": "view",
            "type": "function"
        },
        {
            "inputs": [
                {
                    "internalType": "string",
                    "name": "ipfsCID",
                    "type": "string"
                },
                {
                    "internalType": "uint256",
                    "name": "amount",
                    "type": "uint256"
                }
            ],
            "name": "createCollection",
            "outputs": [],
            "stateMutability": "nonpayable",
            "type": "function"
        }
    ],
    "bytecode": "0x608060405234801561001057600080fd5b50613ead806100206000396000f3fe60806040523480156200001157600080fd5b50600436106200003a5760003560e01c806364d54151146200003f578063fdbda0ec146200005f575b600080fd5b6200005d600480360381019062000057919062000215565b62000095565b005b6200007d60048036038101906200007791906200026f565b6200013e565b6040516200008c91906200030f565b60405180910390f35b6000828233604051620000a8906200017e565b620000b6939291906200032c565b604051809103906000f080158015620000d3573d6000803e3d6000fd5b5090506000819080600181540180825580915050600190039060005260206000200160009091909190916101000a81548173ffffffffffffffffffffffffffffffffffffffff021916908373ffffffffffffffffffffffffffffffffffffffff160217905550505050565b600081815481106200014f57600080fd5b906000526020600020016000915054906101000a900473ffffffffffffffffffffffffffffffffffffffff1681565b613951806200052783390190565b6000620001a36200019d8462000399565b62000370565b905082815260208101848484011115620001bc57600080fd5b620001c984828562000451565b509392505050565b600082601f830112620001e357600080fd5b8135620001f58482602086016200018c565b91505092915050565b6000813590506200020f816200050c565b92915050565b600080604083850312156200022957600080fd5b600083013567ffffffffffffffff8111156200024457600080fd5b6200025285828601620001d1565b92505060206200026585828601620001fe565b9150509250929050565b6000602082840312156200028257600080fd5b60006200029284828501620001fe565b91505092915050565b620002a681620003eb565b82525050565b620002b78162000429565b82525050565b6000620002ca82620003cf565b620002d68185620003da565b9350620002e881856020860162000460565b620002f381620004fb565b840191505092915050565b62000309816200041f565b82525050565b6000602082019050620003266000830184620002ac565b92915050565b60006060820190508181036000830152620003488186620002bd565b9050620003596020830185620002fe565b6200036860408301846200029b565b949350505050565b60006200037c6200038f565b90506200038a828262000496565b919050565b6000604051905090565b600067ffffffffffffffff821115620003b757620003b6620004cc565b5b620003c282620004fb565b9050602081019050919050565b600081519050919050565b600082825260208201905092915050565b6000620003f882620003ff565b9050919050565b600073ffffffffffffffffffffffffffffffffffffffff82169050919050565b6000819050919050565b600062000436826200043d565b9050919050565b60006200044a82620003ff565b9050919050565b82818337600083830152505050565b60005b838110156200048057808201518184015260208101905062000463565b8381111562000490576000848401525b50505050565b620004a182620004fb565b810181811067ffffffffffffffff82111715620004c357620004c2620004cc565b5b80604052505050565b7f4e487b7100000000000000000000000000000000000000000000000000000000600052604160045260246000fd5b6000601f19601f8301169050919050565b62000517816200041f565b81146200052357600080fd5b5056fe60806040523480156200001157600080fd5b506040516200395138038062003951833981810160405281019062000037919062000911565b6040518060400160405280600781526020017f697066733a2f2f00000000000000000000000000000000000000000000000000815250836040518060400160405280601381526020017f2f6d657461646174612f7b69647d2e6a736f6e00000000000000000000000000815250604051602001620000b89392919062000b7b565b604051602081830303815290604052620000d881620002a360201b60201c565b5060008267ffffffffffffffff8111156200011c577f4e487b7100000000000000000000000000000000000000000000000000000000600052604160045260246000fd5b6040519080825280602002602001820160405280156200014b5781602001602082028036833780820191505090505b50905060008367ffffffffffffffff81111562000191577f4e487b7100000000000000000000000000000000000000000000000000000000600052604160045260246000fd5b604051908082528060200260200182016040528015620001c05781602001602082028036833780820191505090505b50905060005b848110156200027457808382815181106200020a577f4e487b7100000000000000000000000000000000000000000000000000000000600052603260045260246000fd5b602002602001018181525050600182828151811062000252577f4e487b7100000000000000000000000000000000000000000000000000000000600052603260045260246000fd5b60200260200101818152505080806200026b9062000f4f565b915050620001c6565b506200029883838360405180602001604052806000815250620002bf60201b60201c565b505050505062001299565b8060029080519060200190620002bb9291906200077e565b5050565b600073ffffffffffffffffffffffffffffffffffffffff168473ffffffffffffffffffffffffffffffffffffffff16141562000332576040517f08c379a0000000000000000000000000000000000000000000000000000000008152600401620003299062000ce9565b60405180910390fd5b815183511462000379576040517f08c379a0000000000000000000000000000000000000000000000000000000008152600401620003709062000cc7565b60405180910390fd5b60006200038b6200055160201b60201c565b9050620003a4816000878787876200055960201b60201c565b60005b8451811015620004b157838181518110620003eb577f4e487b7100000000000000000000000000000000000000000000000000000000600052603260045260246000fd5b602002602001015160008087848151811062000430577f4e487b7100000000000000000000000000000000000000000000000000000000600052603260045260246000fd5b6020026020010151815260200190815260200160002060008873ffffffffffffffffffffffffffffffffffffffff1673ffffffffffffffffffffffffffffffffffffffff168152602001908152602001600020600082825462000494919062000de6565b925050819055508080620004a89062000f4f565b915050620003a7565b508473ffffffffffffffffffffffffffffffffffffffff16600073ffffffffffffffffffffffffffffffffffffffff168273ffffffffffffffffffffffffffffffffffffffff167f4a39dc06d4c0dbc64b70af90fd698a233a518aa5d07e595d983b8c0526c8f7fb87876040516200052b92919062000c24565b60405180910390a46200054a816000878787876200056160201b60201c565b5050505050565b600033905090565b505050505050565b6200058d8473ffffffffffffffffffffffffffffffffffffffff166200076b60201b620008121760201c565b1562000763578373ffffffffffffffffffffffffffffffffffffffff1663bc197c8187878686866040518663ffffffff1660e01b8152600401620005d695949392919062000bb2565b602060405180830381600087803b158015620005f157600080fd5b505af19250505080156200062557506040513d601f19601f82011682018060405250810190620006229190620008e5565b60015b620006d757620006346200102a565b806308c379a014156200069857506200064c620011a9565b806200065957506200069a565b806040517f08c379a00000000000000000000000000000000000000000000000000000000081526004016200068f919062000c5f565b60405180910390fd5b505b6040517f08c379a0000000000000000000000000000000000000000000000000000000008152600401620006ce9062000c83565b60405180910390fd5b63bc197c8160e01b7bffffffffffffffffffffffffffffffffffffffffffffffffffffffff1916817bffffffffffffffffffffffffffffffffffffffffffffffffffffffff19161462000761576040517f08c379a0000000000000000000000000000000000000000000000000000000008152600401620007589062000ca5565b60405180910390fd5b505b505050505050565b600080823b905060008111915050919050565b8280546200078c9062000ee3565b90600052602060002090601f016020900481019282620007b05760008555620007fc565b82601f10620007cb57805160ff1916838001178555620007fc565b82800160010185558215620007fc579182015b82811115620007fb578251825591602001919060010190620007de565b5b5090506200080b91906200080f565b5090565b5b808211156200082a57600081600090555060010162000810565b5090565b6000620008456200083f8462000d34565b62000d0b565b9050828152602081018484840111156200085e57600080fd5b6200086b84828562000ead565b509392505050565b60008151905062000884816200124b565b92915050565b6000815190506200089b8162001265565b92915050565b600082601f830112620008b357600080fd5b8151620008c58482602086016200082e565b91505092915050565b600081519050620008df816200127f565b92915050565b600060208284031215620008f857600080fd5b600062000908848285016200088a565b91505092915050565b6000806000606084860312156200092757600080fd5b600084015167ffffffffffffffff8111156200094257600080fd5b6200095086828701620008a1565b93505060206200096386828701620008ce565b9250506040620009768682870162000873565b9150509250925092565b60006200098e838362000b6a565b60208301905092915050565b620009a58162000e43565b82525050565b6000620009b88262000d7a565b620009c4818562000da8565b9350620009d18362000d6a565b8060005b8381101562000a08578151620009ec888262000980565b9750620009f98362000d9b565b925050600181019050620009d5565b5085935050505092915050565b600062000a228262000d85565b62000a2e818562000db9565b935062000a4081856020860162000ead565b62000a4b816200104f565b840191505092915050565b600062000a638262000d90565b62000a6f818562000dca565b935062000a8181856020860162000ead565b62000a8c816200104f565b840191505092915050565b600062000aa48262000d90565b62000ab0818562000ddb565b935062000ac281856020860162000ead565b80840191505092915050565b600062000add60348362000dca565b915062000aea826200106d565b604082019050919050565b600062000b0460288362000dca565b915062000b1182620010bc565b604082019050919050565b600062000b2b60288362000dca565b915062000b38826200110b565b604082019050919050565b600062000b5260218362000dca565b915062000b5f826200115a565b604082019050919050565b62000b758162000ea3565b82525050565b600062000b89828662000a97565b915062000b97828562000a97565b915062000ba5828462000a97565b9150819050949350505050565b600060a08201905062000bc960008301886200099a565b62000bd860208301876200099a565b818103604083015262000bec8186620009ab565b9050818103606083015262000c028185620009ab565b9050818103608083015262000c18818462000a15565b90509695505050505050565b6000604082019050818103600083015262000c408185620009ab565b9050818103602083015262000c568184620009ab565b90509392505050565b6000602082019050818103600083015262000c7b818462000a56565b905092915050565b6000602082019050818103600083015262000c9e8162000ace565b9050919050565b6000602082019050818103600083015262000cc08162000af5565b9050919050565b6000602082019050818103600083015262000ce28162000b1c565b9050919050565b6000602082019050818103600083015262000d048162000b43565b9050919050565b600062000d1762000d2a565b905062000d25828262000f19565b919050565b6000604051905090565b600067ffffffffffffffff82111562000d525762000d5162000ffb565b5b62000d5d826200104f565b9050602081019050919050565b6000819050602082019050919050565b600081519050919050565b600081519050919050565b600081519050919050565b6000602082019050919050565b600082825260208201905092915050565b600082825260208201905092915050565b600082825260208201905092915050565b600081905092915050565b600062000df38262000ea3565b915062000e008362000ea3565b9250827fffffffffffffffffffffffffffffffffffffffffffffffffffffffffffffffff0382111562000e385762000e3762000f9d565b5b828201905092915050565b600062000e508262000e83565b9050919050565b60007fffffffff0000000000000000000000000000000000000000000000000000000082169050919050565b600073ffffffffffffffffffffffffffffffffffffffff82169050919050565b6000819050919050565b60005b8381101562000ecd57808201518184015260208101905062000eb0565b8381111562000edd576000848401525b50505050565b6000600282049050600182168062000efc57607f821691505b6020821081141562000f135762000f1262000fcc565b5b50919050565b62000f24826200104f565b810181811067ffffffffffffffff8211171562000f465762000f4562000ffb565b5b80604052505050565b600062000f5c8262000ea3565b91507fffffffffffffffffffffffffffffffffffffffffffffffffffffffffffffffff82141562000f925762000f9162000f9d565b5b600182019050919050565b7f4e487b7100000000000000000000000000000000000000000000000000000000600052601160045260246000fd5b7f4e487b7100000000000000000000000000000000000000000000000000000000600052602260045260246000fd5b7f4e487b7100000000000000000000000000000000000000000000000000000000600052604160045260246000fd5b600060033d11156200104c5760046000803e6200104960005162001060565b90505b90565b6000601f19601f8301169050919050565b60008160e01c9050919050565b7f455243313135353a207472616e7366657220746f206e6f6e204552433131353560008201527f526563656976657220696d706c656d656e746572000000000000000000000000602082015250565b7f455243313135353a204552433131353552656365697665722072656a6563746560008201527f6420746f6b656e73000000000000000000000000000000000000000000000000602082015250565b7f455243313135353a2069647320616e6420616d6f756e7473206c656e6774682060008201527f6d69736d61746368000000000000000000000000000000000000000000000000602082015250565b7f455243313135353a206d696e7420746f20746865207a65726f2061646472657360008201527f7300000000000000000000000000000000000000000000000000000000000000602082015250565b600060443d1015620011bb5762001248565b620011c562000d2a565b60043d036004823e80513d602482011167ffffffffffffffff82111715620011ef57505062001248565b808201805167ffffffffffffffff8111156200120f575050505062001248565b80602083010160043d0385018111156200122e57505050505062001248565b6200123f8260200185018662000f19565b82955050505050505b90565b620012568162000e43565b81146200126257600080fd5b50565b620012708162000e57565b81146200127c57600080fd5b50565b6200128a8162000ea3565b81146200129657600080fd5b50565b6126a880620012a96000396000f3fe608060405234801561001057600080fd5b50600436106100925760003560e01c80634e1273f4116100665780634e1273f414610143578063a22cb46514610173578063e8a3d4851461018f578063e985e9c5146101ad578063f242432a146101dd57610092565b8062fdd58e1461009757806301ffc9a7146100c75780630e89341c146100f75780632eb2c2d614610127575b600080fd5b6100b160048036038101906100ac9190611845565b6101f9565b6040516100be9190611e82565b60405180910390f35b6100e160048036038101906100dc91906118ed565b6102c2565b6040516100ee9190611d05565b60405180910390f35b610111600480360381019061010c919061193f565b6103a4565b60405161011e9190611d20565b60405180910390f35b610141600480360381019061013c91906116bb565b610438565b005b61015d60048036038101906101589190611881565b6104d9565b60405161016a9190611cac565b60405180910390f35b61018d60048036038101906101889190611809565b61068a565b005b6101976106a0565b6040516101a49190611d20565b60405180910390f35b6101c760048036038101906101c2919061167f565b6106dd565b6040516101d49190611d05565b60405180910390f35b6101f760048036038101906101f2919061177a565b610771565b005b60008073ffffffffffffffffffffffffffffffffffffffff168373ffffffffffffffffffffffffffffffffffffffff16141561026a576040517f08c379a000000000000000000000000000000000000000000000000000000000815260040161026190611d82565b60405180910390fd5b60008083815260200190815260200160002060008473ffffffffffffffffffffffffffffffffffffffff1673ffffffffffffffffffffffffffffffffffffffff16815260200190815260200160002054905092915050565b60007fd9b67a26000000000000000000000000000000000000000000000000000000007bffffffffffffffffffffffffffffffffffffffffffffffffffffffff1916827bffffffffffffffffffffffffffffffffffffffffffffffffffffffff1916148061038d57507f0e89341c000000000000000000000000000000000000000000000000000000007bffffffffffffffffffffffffffffffffffffffffffffffffffffffff1916827bffffffffffffffffffffffffffffffffffffffffffffffffffffffff1916145b8061039d575061039c82610825565b5b9050919050565b6060600280546103b3906120f1565b80601f01602080910402602001604051908101604052809291908181526020018280546103df906120f1565b801561042c5780601f106104015761010080835404028352916020019161042c565b820191906000526020600020905b81548152906001019060200180831161040f57829003601f168201915b50505050509050919050565b61044061088f565b73ffffffffffffffffffffffffffffffffffffffff168573ffffffffffffffffffffffffffffffffffffffff16148061048657506104858561048061088f565b6106dd565b5b6104c5576040517f08c379a00000000000000000000000000000000000000000000000000000000081526004016104bc90611de2565b60405180910390fd5b6104d28585858585610897565b5050505050565b6060815183511461051f576040517f08c379a000000000000000000000000000000000000000000000000000000000815260040161051690611e42565b60405180910390fd5b6000835167ffffffffffffffff811115610562577f4e487b7100000000000000000000000000000000000000000000000000000000600052604160045260246000fd5b6040519080825280602002602001820160405280156105905781602001602082028036833780820191505090505b50905060005b845181101561067f576106298582815181106105db577f4e487b7100000000000000000000000000000000000000000000000000000000600052603260045260246000fd5b602002602001015185838151811061061c577f4e487b7100000000000000000000000000000000000000000000000000000000600052603260045260246000fd5b60200260200101516101f9565b828281518110610662577f4e487b7100000000000000000000000000000000000000000000000000000000600052603260045260246000fd5b6020026020010181815250508061067890612154565b9050610596565b508091505092915050565b61069c61069561088f565b8383610bf7565b5050565b60606040518060400160405280601d81526020017f68747470733a2f2f6a736f6e6b65657065722e636f6d2f622f4149394c000000815250905090565b6000600160008473ffffffffffffffffffffffffffffffffffffffff1673ffffffffffffffffffffffffffffffffffffffff16815260200190815260200160002060008373ffffffffffffffffffffffffffffffffffffffff1673ffffffffffffffffffffffffffffffffffffffff16815260200190815260200160002060009054906101000a900460ff16905092915050565b61077961088f565b73ffffffffffffffffffffffffffffffffffffffff168573ffffffffffffffffffffffffffffffffffffffff1614806107bf57506107be856107b961088f565b6106dd565b5b6107fe576040517f08c379a00000000000000000000000000000000000000000000000000000000081526004016107f590611da2565b60405180910390fd5b61080b8585858585610d64565b5050505050565b600080823b905060008111915050919050565b60007f01ffc9a7000000000000000000000000000000000000000000000000000000007bffffffffffffffffffffffffffffffffffffffffffffffffffffffff1916827bffffffffffffffffffffffffffffffffffffffffffffffffffffffff1916149050919050565b600033905090565b81518351146108db576040517f08c379a00000000000000000000000000000000000000000000000000000000081526004016108d290611e62565b60405180910390fd5b600073ffffffffffffffffffffffffffffffffffffffff168473ffffffffffffffffffffffffffffffffffffffff16141561094b576040517f08c379a000000000000000000000000000000000000000000000000000000000815260040161094290611dc2565b60405180910390fd5b600061095561088f565b9050610965818787878787610fe6565b60005b8451811015610b625760008582815181106109ac577f4e487b7100000000000000000000000000000000000000000000000000000000600052603260045260246000fd5b6020026020010151905060008583815181106109f1577f4e487b7100000000000000000000000000000000000000000000000000000000600052603260045260246000fd5b60200260200101519050600080600084815260200190815260200160002060008b73ffffffffffffffffffffffffffffffffffffffff1673ffffffffffffffffffffffffffffffffffffffff16815260200190815260200160002054905081811015610a92576040517f08c379a0000000000000000000000000000000000000000000000000000000008152600401610a8990611e02565b60405180910390fd5b81810360008085815260200190815260200160002060008c73ffffffffffffffffffffffffffffffffffffffff1673ffffffffffffffffffffffffffffffffffffffff168152602001908152602001600020819055508160008085815260200190815260200160002060008b73ffffffffffffffffffffffffffffffffffffffff1673ffffffffffffffffffffffffffffffffffffffff1681526020019081526020016000206000828254610b479190611fe5565b9250508190555050505080610b5b90612154565b9050610968565b508473ffffffffffffffffffffffffffffffffffffffff168673ffffffffffffffffffffffffffffffffffffffff168273ffffffffffffffffffffffffffffffffffffffff167f4a39dc06d4c0dbc64b70af90fd698a233a518aa5d07e595d983b8c0526c8f7fb8787604051610bd9929190611cce565b60405180910390a4610bef818787878787610fee565b505050505050565b8173ffffffffffffffffffffffffffffffffffffffff168373ffffffffffffffffffffffffffffffffffffffff161415610c66576040517f08c379a0000000000000000000000000000000000000000000000000000000008152600401610c5d90611e22565b60405180910390fd5b80600160008573ffffffffffffffffffffffffffffffffffffffff1673ffffffffffffffffffffffffffffffffffffffff16815260200190815260200160002060008473ffffffffffffffffffffffffffffffffffffffff1673ffffffffffffffffffffffffffffffffffffffff16815260200190815260200160002060006101000a81548160ff0219169083151502179055508173ffffffffffffffffffffffffffffffffffffffff168373ffffffffffffffffffffffffffffffffffffffff167f17307eab39ab6107e8899845ad3d59bd9653f200f220920489ca2b5937696c3183604051610d579190611d05565b60405180910390a3505050565b600073ffffffffffffffffffffffffffffffffffffffff168473ffffffffffffffffffffffffffffffffffffffff161415610dd4576040517f08c379a0000000000000000000000000000000000000000000000000000000008152600401610dcb90611dc2565b60405180910390fd5b6000610dde61088f565b9050610dfe818787610def886111d5565b610df8886111d5565b87610fe6565b600080600086815260200190815260200160002060008873ffffffffffffffffffffffffffffffffffffffff1673ffffffffffffffffffffffffffffffffffffffff16815260200190815260200160002054905083811015610e95576040517f08c379a0000000000000000000000000000000000000000000000000000000008152600401610e8c90611e02565b60405180910390fd5b83810360008087815260200190815260200160002060008973ffffffffffffffffffffffffffffffffffffffff1673ffffffffffffffffffffffffffffffffffffffff168152602001908152602001600020819055508360008087815260200190815260200160002060008873ffffffffffffffffffffffffffffffffffffffff1673ffffffffffffffffffffffffffffffffffffffff1681526020019081526020016000206000828254610f4a9190611fe5565b925050819055508573ffffffffffffffffffffffffffffffffffffffff168773ffffffffffffffffffffffffffffffffffffffff168373ffffffffffffffffffffffffffffffffffffffff167fc3d58168c5ae7397731d063d5bbf3d657854427343f4c083240f7aacaa2d0f628888604051610fc7929190611e9d565b60405180910390a4610fdd82888888888861129b565b50505050505050565b505050505050565b61100d8473ffffffffffffffffffffffffffffffffffffffff16610812565b156111cd578373ffffffffffffffffffffffffffffffffffffffff1663bc197c8187878686866040518663ffffffff1660e01b8152600401611053959493929190611bea565b602060405180830381600087803b15801561106d57600080fd5b505af192505050801561109e57506040513d601f19601f8201168201806040525081019061109b9190611916565b60015b611144576110aa61222a565b806308c379a0141561110757506110bf612580565b806110ca5750611109565b806040517f08c379a00000000000000000000000000000000000000000000000000000000081526004016110fe9190611d20565b60405180910390fd5b505b6040517f08c379a000000000000000000000000000000000000000000000000000000000815260040161113b90611d42565b60405180910390fd5b63bc197c8160e01b7bffffffffffffffffffffffffffffffffffffffffffffffffffffffff1916817bffffffffffffffffffffffffffffffffffffffffffffffffffffffff1916146111cb576040517f08c379a00000000000000000000000000000000000000000000000000000000081526004016111c290611d62565b60405180910390fd5b505b505050505050565b60606000600167ffffffffffffffff81111561121a577f4e487b7100000000000000000000000000000000000000000000000000000000600052604160045260246000fd5b6040519080825280602002602001820160405280156112485781602001602082028036833780820191505090505b5090508281600081518110611286577f4e487b7100000000000000000000000000000000000000000000000000000000600052603260045260246000fd5b60200260200101818152505080915050919050565b6112ba8473ffffffffffffffffffffffffffffffffffffffff16610812565b1561147a578373ffffffffffffffffffffffffffffffffffffffff1663f23a6e6187878686866040518663ffffffff1660e01b8152600401611300959493929190611c52565b602060405180830381600087803b15801561131a57600080fd5b505af192505050801561134b57506040513d601f19601f820116820180604052508101906113489190611916565b60015b6113f15761135761222a565b806308c379a014156113b4575061136c612580565b8061137757506113b6565b806040517f08c379a00000000000000000000000000000000000000000000000000000000081526004016113ab9190611d20565b60405180910390fd5b505b6040517f08c379a00000000000000000000000000000000000000000000000000000000081526004016113e890611d42565b60405180910390fd5b63f23a6e6160e01b7bffffffffffffffffffffffffffffffffffffffffffffffffffffffff1916817bffffffffffffffffffffffffffffffffffffffffffffffffffffffff191614611478576040517f08c379a000000000000000000000000000000000000000000000000000000000815260040161146f90611d62565b60405180910390fd5b505b505050505050565b600061149561149084611eeb565b611ec6565b905080838252602082019050828560208602820111156114b457600080fd5b60005b858110156114e457816114ca8882611598565b8452602084019350602083019250506001810190506114b7565b5050509392505050565b60006115016114fc84611f17565b611ec6565b9050808382526020820190508285602086028201111561152057600080fd5b60005b858110156115505781611536888261166a565b845260208401935060208301925050600181019050611523565b5050509392505050565b600061156d61156884611f43565b611ec6565b90508281526020810184848401111561158557600080fd5b6115908482856120af565b509392505050565b6000813590506115a781612616565b92915050565b600082601f8301126115be57600080fd5b81356115ce848260208601611482565b91505092915050565b600082601f8301126115e857600080fd5b81356115f88482602086016114ee565b91505092915050565b6000813590506116108161262d565b92915050565b60008135905061162581612644565b92915050565b60008151905061163a81612644565b92915050565b600082601f83011261165157600080fd5b813561166184826020860161155a565b91505092915050565b6000813590506116798161265b565b92915050565b6000806040838503121561169257600080fd5b60006116a085828601611598565b92505060206116b185828601611598565b9150509250929050565b600080600080600060a086880312156116d357600080fd5b60006116e188828901611598565b95505060206116f288828901611598565b945050604086013567ffffffffffffffff81111561170f57600080fd5b61171b888289016115d7565b935050606086013567ffffffffffffffff81111561173857600080fd5b611744888289016115d7565b925050608086013567ffffffffffffffff81111561176157600080fd5b61176d88828901611640565b9150509295509295909350565b600080600080600060a0868803121561179257600080fd5b60006117a088828901611598565b95505060206117b188828901611598565b94505060406117c28882890161166a565b93505060606117d38882890161166a565b925050608086013567ffffffffffffffff8111156117f057600080fd5b6117fc88828901611640565b9150509295509295909350565b6000806040838503121561181c57600080fd5b600061182a85828601611598565b925050602061183b85828601611601565b9150509250929050565b6000806040838503121561185857600080fd5b600061186685828601611598565b92505060206118778582860161166a565b9150509250929050565b6000806040838503121561189457600080fd5b600083013567ffffffffffffffff8111156118ae57600080fd5b6118ba858286016115ad565b925050602083013567ffffffffffffffff8111156118d757600080fd5b6118e3858286016115d7565b9150509250929050565b6000602082840312156118ff57600080fd5b600061190d84828501611616565b91505092915050565b60006020828403121561192857600080fd5b60006119368482850161162b565b91505092915050565b60006020828403121561195157600080fd5b600061195f8482850161166a565b91505092915050565b60006119748383611bcc565b60208301905092915050565b6119898161203b565b82525050565b600061199a82611f84565b6119a48185611fb2565b93506119af83611f74565b8060005b838110156119e05781516119c78882611968565b97506119d283611fa5565b9250506001810190506119b3565b5085935050505092915050565b6119f68161204d565b82525050565b6000611a0782611f8f565b611a118185611fc3565b9350611a218185602086016120be565b611a2a8161224c565b840191505092915050565b6000611a4082611f9a565b611a4a8185611fd4565b9350611a5a8185602086016120be565b611a638161224c565b840191505092915050565b6000611a7b603483611fd4565b9150611a868261226a565b604082019050919050565b6000611a9e602883611fd4565b9150611aa9826122b9565b604082019050919050565b6000611ac1602b83611fd4565b9150611acc82612308565b604082019050919050565b6000611ae4602983611fd4565b9150611aef82612357565b604082019050919050565b6000611b07602583611fd4565b9150611b12826123a6565b604082019050919050565b6000611b2a603283611fd4565b9150611b35826123f5565b604082019050919050565b6000611b4d602a83611fd4565b9150611b5882612444565b604082019050919050565b6000611b70602983611fd4565b9150611b7b82612493565b604082019050919050565b6000611b93602983611fd4565b9150611b9e826124e2565b604082019050919050565b6000611bb6602883611fd4565b9150611bc182612531565b604082019050919050565b611bd5816120a5565b82525050565b611be4816120a5565b82525050565b600060a082019050611bff6000830188611980565b611c0c6020830187611980565b8181036040830152611c1e818661198f565b90508181036060830152611c32818561198f565b90508181036080830152611c4681846119fc565b90509695505050505050565b600060a082019050611c676000830188611980565b611c746020830187611980565b611c816040830186611bdb565b611c8e6060830185611bdb565b8181036080830152611ca081846119fc565b90509695505050505050565b60006020820190508181036000830152611cc6818461198f565b905092915050565b60006040820190508181036000830152611ce8818561198f565b90508181036020830152611cfc818461198f565b90509392505050565b6000602082019050611d1a60008301846119ed565b92915050565b60006020820190508181036000830152611d3a8184611a35565b905092915050565b60006020820190508181036000830152611d5b81611a6e565b9050919050565b60006020820190508181036000830152611d7b81611a91565b9050919050565b60006020820190508181036000830152611d9b81611ab4565b9050919050565b60006020820190508181036000830152611dbb81611ad7565b9050919050565b60006020820190508181036000830152611ddb81611afa565b9050919050565b60006020820190508181036000830152611dfb81611b1d565b9050919050565b60006020820190508181036000830152611e1b81611b40565b9050919050565b60006020820190508181036000830152611e3b81611b63565b9050919050565b60006020820190508181036000830152611e5b81611b86565b9050919050565b60006020820190508181036000830152611e7b81611ba9565b9050919050565b6000602082019050611e976000830184611bdb565b92915050565b6000604082019050611eb26000830185611bdb565b611ebf6020830184611bdb565b9392505050565b6000611ed0611ee1565b9050611edc8282612123565b919050565b6000604051905090565b600067ffffffffffffffff821115611f0657611f056121fb565b5b602082029050602081019050919050565b600067ffffffffffffffff821115611f3257611f316121fb565b5b602082029050602081019050919050565b600067ffffffffffffffff821115611f5e57611f5d6121fb565b5b611f678261224c565b9050602081019050919050565b6000819050602082019050919050565b600081519050919050565b600081519050919050565b600081519050919050565b6000602082019050919050565b600082825260208201905092915050565b600082825260208201905092915050565b600082825260208201905092915050565b6000611ff0826120a5565b9150611ffb836120a5565b9250827fffffffffffffffffffffffffffffffffffffffffffffffffffffffffffffffff038211156120305761202f61219d565b5b828201905092915050565b600061204682612085565b9050919050565b60008115159050919050565b60007fffffffff0000000000000000000000000000000000000000000000000000000082169050919050565b600073ffffffffffffffffffffffffffffffffffffffff82169050919050565b6000819050919050565b82818337600083830152505050565b60005b838110156120dc5780820151818401526020810190506120c1565b838111156120eb576000848401525b50505050565b6000600282049050600182168061210957607f821691505b6020821081141561211d5761211c6121cc565b5b50919050565b61212c8261224c565b810181811067ffffffffffffffff8211171561214b5761214a6121fb565b5b80604052505050565b600061215f826120a5565b91507fffffffffffffffffffffffffffffffffffffffffffffffffffffffffffffffff8214156121925761219161219d565b5b600182019050919050565b7f4e487b7100000000000000000000000000000000000000000000000000000000600052601160045260246000fd5b7f4e487b7100000000000000000000000000000000000000000000000000000000600052602260045260246000fd5b7f4e487b7100000000000000000000000000000000000000000000000000000000600052604160045260246000fd5b600060033d11156122495760046000803e61224660005161225d565b90505b90565b6000601f19601f8301169050919050565b60008160e01c9050919050565b7f455243313135353a207472616e7366657220746f206e6f6e204552433131353560008201527f526563656976657220696d706c656d656e746572000000000000000000000000602082015250565b7f455243313135353a204552433131353552656365697665722072656a6563746560008201527f6420746f6b656e73000000000000000000000000000000000000000000000000602082015250565b7f455243313135353a2062616c616e636520717565727920666f7220746865207a60008201527f65726f2061646472657373000000000000000000000000000000000000000000602082015250565b7f455243313135353a2063616c6c6572206973206e6f74206f776e6572206e6f7260008201527f20617070726f7665640000000000000000000000000000000000000000000000602082015250565b7f455243313135353a207472616e7366657220746f20746865207a65726f20616460008201527f6472657373000000000000000000000000000000000000000000000000000000602082015250565b7f455243313135353a207472616e736665722063616c6c6572206973206e6f742060008201527f6f776e6572206e6f7220617070726f7665640000000000000000000000000000602082015250565b7f455243313135353a20696e73756666696369656e742062616c616e636520666f60008201527f72207472616e7366657200000000000000000000000000000000000000000000602082015250565b7f455243313135353a2073657474696e6720617070726f76616c2073746174757360008201527f20666f722073656c660000000000000000000000000000000000000000000000602082015250565b7f455243313135353a206163636f756e747320616e6420696473206c656e67746860008201527f206d69736d617463680000000000000000000000000000000000000000000000602082015250565b7f455243313135353a2069647320616e6420616d6f756e7473206c656e6774682060008201527f6d69736d61746368000000000000000000000000000000000000000000000000602082015250565b600060443d101561259057612613565b612598611ee1565b60043d036004823e80513d602482011167ffffffffffffffff821117156125c0575050612613565b808201805167ffffffffffffffff8111156125de5750505050612613565b80602083010160043d0385018111156125fb575050505050612613565b61260a82602001850186612123565b82955050505050505b90565b61261f8161203b565b811461262a57600080fd5b50565b6126368161204d565b811461264157600080fd5b50565b61264d81612059565b811461265857600080fd5b50565b612664816120a5565b811461266f57600080fd5b5056fea264697066735822122089a917a5dcc780de3f0d2bf0381042de0571160a07c29dc0c30be976a5965ad664736f6c63430008040033a26469706673582212207a9917413f50be85223c69ccc80835abf832ec179c369a8c0aab56c8ab617dbf64736f6c63430008040033",
    "linkReferences": {},
    "deployedLinkReferences": {}
}